:100000000C9473000C949E000C949E000C949E0023
:100010000C949E000C949E000C949E000C949E00E8
:100020000C949E000C949E000C949E000C949E00D8
:100030000C949E000C949E000C949E000C949E00C8
:100040000C949E000C949E000C949E000C949E00B8
:100050000C949E000C949E000C949E000C948F05B2
:100060000C949E000C94AB000C94F3010C949E0035
:100070000C949E000C949E000C949E000C949E0088
:100080000C949E000C949E000C949E000C949E0078
:100090000C94EB000C9432020C949E000C949E0085
:1000A0000C949E000C949E000C949E000C949E0058
:1000B0000C949E000C949E000C949E000C949E0048
:1000C0000C949E000C949E000C949E000C942B01AA
:1000D0000C9471020C949E000C946B010C94B00271
:1000E0000C949E00200411241FBECFEFD1E2DEBF8E
:1000F000CDBF12E0A0E0B2E0E6ECFCE000E00BBF18
:1001000002C007900D92A031B107D9F71BBE14E0D1
:10011000A0E1B2E001C01D92A13CB107E1F710E0FF
:10012000C6EED0E004C02297FE010E945D06C43EE8
:10013000D107C9F70E9456050C9461060C94000083
:10014000089580E394E040E052EC61E070E00E94AA
:10015000EF02089508951F920F920FB60F920BB6FB
:100160000F9211242F933F934F938F939F93EF936D
:10017000FF938091C00082FD1DC04091C600209178
:100180005002309151022F5F3F4F2F73307080919A
:100190005202909153022817390771F0E0915002F2
:1001A000F0915102E05FFD4F408330935102209364
:1001B000500202C08091C600FF91EF919F918F91F4
:1001C0004F913F912F910F900BBE0F900FBE0F904C
:1001D0001F90189508951F920F920FB60F920BB6AD
:1001E0000F9211242F933F934F938F939F93EF93ED
:1001F000FF938091C80082FD1DC04091CE002091E8
:10020000D8023091D9022F5F3F4F2F733070809109
:10021000DA029091DB022817390771F0E091D802D9
:10022000F091D902E856FD4F40833093D9022093D4
:10023000D80202C08091CE00FF91EF919F918F91E3
:100240004F913F912F910F900BBE0F900FBE0F90CB
:100250001F90189508951F920F920FB60F920BB62C
:100260000F9211242F933F934F938F939F93EF936C
:10027000FF938091D00082FD1DC04091D600209157
:100280006003309161032F5F3F4F2F733070809177
:100290006203909163032817390771F0E0916003BE
:1002A000F0916103E05EFC4F408330936103209343
:1002B000600302C08091D600FF91EF919F918F91D2
:1002C0004F913F912F910F900BBE0F900FBE0F904B
:1002D0001F90189508951F920F920FB60F920BB6AC
:1002E0000F9211242F933F934F938F939F93EF93EC
:1002F000FF938091300182FD1DC040913601209115
:10030000E8033091E9032F5F3F4F2F7330708091E6
:10031000EA039091EB032817390771F0E091E803A5
:10032000F091E903E855FC4F40833093E9032093B3
:10033000E80302C080913601FF91EF919F918F9168
:100340004F913F912F910F900BBE0F900FBE0F90CA
:100350001F901895E0913C04F0913D04E05CFF4F44
:100360008191919120813181821B930B8F739070C9
:10037000892B11F00E94AA00E0915E04F0915F04C5
:10038000E05CFF4F8191919120813181821B930B21
:100390008F739070892B11F00E94EA00E091800425
:1003A000F0918104E05CFF4F819191912081318136
:1003B000821B930B8F739070892B11F00E942A017E
:1003C000E091A204F091A304E05CFF4F8191919130
:1003D00020813181821B930B8F739070892B11F0D8
:1003E0000E946A0108951F920F920FB60F920BB6EA
:1003F0000F9211242F933F938F939F93EF93FF932B
:1004000020919402309195028091960290919702EA
:100410002817390731F48091C1008F7D8093C10086
:1004200014C0E0919602F0919702EC5AFD4F2081A2
:10043000809196029091970201968F73907090939D
:100440009702809396022093C600FF91EF919F91AF
:100450008F913F912F910F900BBE0F900FBE0F9079
:100460001F9018951F920F920FB60F920BB60F9216
:1004700011242F933F938F939F93EF93FF9320919A
:100480001C0330911D0380911E0390911F032817B8
:10049000390731F48091C9008F7D8093C90014C061
:1004A000E0911E03F0911F03E452FD4F20818091E3
:1004B0001E0390911F0301968F73907090931F03FA
:1004C00080931E032093CE00FF91EF919F918F9117
:1004D0003F912F910F900BBE0F900FBE0F901F906A
:1004E00018951F920F920FB60F920BB60F92112410
:1004F0002F933F938F939F93EF93FF932091A403A8
:100500003091A5038091A6039091A703281739077E
:1005100031F48091D1008F7D8093D10014C0E0919F
:10052000A603F091A703EC59FC4F20818091A6030C
:100530009091A70301968F7390709093A703809377
:10054000A6032093D600FF91EF919F918F913F9149
:100550002F910F900BBE0F900FBE0F901F9018950C
:100560001F920F920FB60F920BB60F9211242F937A
:100570003F938F939F93EF93FF9320912C0430919F
:100580002D0480912E0490912F042817390731F4FF
:10059000809131018F7D8093310114C0E0912E0450
:1005A000F0912F04E451FC4F208180912E04909112
:1005B0002F0401968F73907090932F0480932E04D4
:1005C00020933601FF91EF919F918F913F912F9151
:1005D0000F900BBE0F900FBE0F901F901895AF920B
:1005E000BF92DF92EF92FF920F931F93CF93DF930F
:1005F000EC017A018B01DD24403081EE580780E068
:10060000680780E0780711F0DD24D39491E0A92EEB
:10061000B12CEC89FD89DD2069F0C50108A002C07C
:10062000880F991F0A94E2F7808360E079E08DE3F8
:1006300090E005C0108260E874E88EE190E0A801C7
:1006400097010E9439062150304040405040569555
:1006500047953795279580E12030380720F0DD2039
:1006600011F0DD24D6CFE889F9893083EA89FB8946
:10067000208319A2EE89FF89408121E030E0C90181
:100680000C8C02C0880F991F0A94E2F7482B408314
:10069000EE89FF894081C9010D8C02C0880F991F26
:1006A0000A94E2F7482B4083EE89FF894081C90113
:1006B0000E8C02C0880F991F0A94E2F7482B4083E2
:1006C000EE89FF8980810F8C02C0220F331F0A94AC
:1006D000E2F7209528232083DF91CF911F910F917E
:1006E000FF90EF90DF90BF90AF900895DC011C96D3
:1006F000ED91FC911D97E05CFF4F2191319180813C
:100700009181281B390B2F733070C9010895DC01CA
:100710001C96ED91FC911D97E05CFF4F208131818B
:10072000E054F040DF01AE5BBF4F8D919C9111977B
:100730002817390719F42FEF3FEF07C08D919C91CF
:10074000E80FF91F8081282F30E0C9010895DC01EE
:100750001C96ED91FC911D97E05CFF4F208131814B
:10076000E054F040DF01AE5BBF4F8D919C9111973B
:100770002817390719F42FEF3FEF10C08D919C9186
:100780001197E80FF91F20818D919C911197019687
:100790008F73907011969C938E9330E0C9010895E9
:1007A000DC0191968C919197882339F05496ED91C4
:1007B000FC915597808186FFF9CF91961C92089500
:1007C000CF93DF93EC01EE85FF85E05CFF4F208146
:1007D0003181E054F0402F5F3F4F2F733070DF01C5
:1007E000AE5BBF4F8D919C91119728173907D1F3BC
:1007F000E05CFF4F80819181E054F040E80FF91FE9
:100800006083EE85FF85E05CFF4F31832083EE89B6
:10081000FF89208181E090E00F8C02C0880F991F32
:100820000A94E2F7282B208381E089A3EC89FD89D3
:1008300080818064808381E090E0DF91CF91089592
:100840001F93109233041092320428EE33E040E0FC
:1008500050E0209334043093350440933604509391
:10086000370464E072E0709331046093300480E1F7
:1008700092E090933D0480933C0484E592E0909351
:100880003F0480933E0485EC90E090934104809374
:10089000400484EC90E0909343048093420480EC05
:1008A00090E0909345048093440481EC90E0909311
:1008B00047048093460482EC90E09093490480932F
:1008C000480486EC90E090934B0480934A0414E033
:1008D00010934C04B3E0B0934D04A7E0A0934E04F2
:1008E000F5E0F0934F04E1E0E093500410925504DA
:1008F00010925404209356043093570440935804A4
:1009000050935904709353046093520488E992E021
:1009100090935F0480935E048CED92E09093610469
:10092000809360048DEC90E0909363048093620464
:100930008CEC90E0909365048093640488EC90E0E4
:10094000909367048093660489EC90E09093690427
:10095000809368048AEC90E090936B0480936A041F
:100960008EEC90E090936D0480936C0410936E0471
:10097000B0936F04A0937004F0937104E093720439
:1009800010927704109276042093780430937904BF
:1009900040937A0450937B047093750460937404BD
:1009A00080E293E0909381048093800484E693E056
:1009B000909383048093820485ED90E09093850466
:1009C0008093840484ED90E0909387048093860460
:1009D00080ED90E0909389048093880481ED90E00D
:1009E00090938B0480938A0482ED90E090938D0421
:1009F00080938C0486ED90E090938F0480938E0416
:100A000010939004B0939104A0939204F0939304F4
:100A1000E0939404109299041092980420939A04FD
:100A200030939B0440939C0450939D0470939704CF
:100A30006093960488EA93E09093A3048093A204C1
:100A40008CEE93E09093A5048093A40485E391E059
:100A50009093A7048093A60484E391E09093A90463
:100A60008093A80480E391E09093AB048093AA0460
:100A700081E391E09093AD048093AC0482E391E034
:100A80009093AF048093AE0486E391E09093B10419
:100A90008093B0041093B204B093B304A093B40451
:100AA000F093B504E093B6041F910895CF93DF93BC
:100AB0000E94D7050E94A100CAEAD1E00E94A000CE
:100AC0002097E1F30E94AA01F9CFCF92DF92EF9233
:100AD000FF920F931F93CF93DF937C016B018A01E9
:100AE000C0E0D0E00FC0D6016D916D01D701ED914E
:100AF000FC910190F081E02DC7010995C80FD91F25
:100B0000015010400115110571F7CE01DF91CF9111
:100B10001F910F91FF90EF90DF90CF9008951F925B
:100B20000F920FB60F9211242F933F938F939F93A1
:100B3000AF93BF938091BC049091BD04A091BE047B
:100B4000B091BF043091C0040196A11DB11D232FA7
:100B50002D5F2D3720F02D570196A11DB11D20933B
:100B6000C0048093BC049093BD04A093BE04B093D2
:100B7000BF048091B8049091B904A091BA04B091D7
:100B8000BB040196A11DB11D8093B8049093B904D4
:100B9000A093BA04B093BB04BF91AF919F918F9182
:100BA0003F912F910F900FBE0F901F901895789442
:100BB00084B5826084BD84B5816084BD85B5826062
:100BC00085BD85B5816085BDEEE6F0E08081816000
:100BD0008083E1E8F0E01082808182608083808100
:100BE00081608083E0E8F0E0808181608083E1EBD8
:100BF000F0E0808184608083E0EBF0E080818160C0
:100C00008083E1E9F0E0808182608083808181607F
:100C10008083E0E9F0E0808181608083E1EAF0E0B8
:100C2000808182608083808181608083E0EAF0E05F
:100C3000808181608083E1E2F1E080818260808355
:100C4000808181608083E0E2F1E080818160808347
:100C5000EAE7F0E080818460808380818260808325
:100C60008081816080838081806880831092C10050
:100C70000895A1E21A2EAA1BBB1BFD010DC0AA1FDD
:100C8000BB1FEE1FFF1FA217B307E407F50720F0F5
:100C9000A21BB30BE40BF50B661F771F881F991F70
:100CA0001A9469F760957095809590959B01AC01B9
:100CB000BD01CF010895EE0FFF1F0590F491E02DC7
:060CC0000994F894FFCF37
:100CC60000000000E00365057603A7038703D00351
:00000001FF
